:100000000C9435000C945D000C945D000C945D0024
:100010000C945D000C945D000C945D000C945D00EC
:100020000C945D000C945D000C945D000C945D00DC
:100030000C945D000C945D000C945D000C945D00CC
:100040000C9443020C945D000C9411020C94EB018F
:100050000C945D000C945D000C945D000C945D00AC
:100060000C945D000C945D00910311241FBECFEF32
:10007000D8E0DEBFCDBF11E0A0E0B1E0ECE8F7E0F2
:1000800002C005900D92A636B107D9F722E0A6E688
:10009000B1E001C01D92A337B207E1F710E0C5E35C
:1000A000D0E004C02197FE010E94BE03C433D107F3
:1000B000C9F70E948D020C94C4030C940000AF9207
:1000C000BF92CF92DF92EF92FF920F931F93CF9345
:1000D000DF936C017B018B01040F151FEB015E01A7
:1000E000AE18BF08C017D10759F06991D601ED913C
:1000F000FC910190F081E02DC6010995892B79F7DB
:10010000C501DF91CF911F910F91FF90EF90DF908C
:10011000CF90BF90AF900895FC01538D448D252F53
:1001200030E0842F90E0821B930B541710F0CF9691
:10013000089501970895FC01918D828D981761F0C3
:10014000A28DAE0FBF2FB11D5D968C91928D9F5FDA
:100150009F73928F90E008958FEF9FEF0895FC01B9
:10016000918D828D981731F0828DE80FF11D858D6C
:1001700090E008958FEF9FEF0895FC01918D228DFF
:10018000892F90E0805C9F4F821B91098F73992784
:10019000089586ED91E00E94BD0021E0892B09F4CD
:1001A00020E0822F089580E090E0892B29F00E94C2
:1001B000C90081110C9400000895FC01A48DA80FC2
:1001C000B92FB11DA35ABF4F2C91848D90E0019699
:1001D0008F739927848FA689B7892C93A089B189B9
:1001E0008C91837080648C93938D848D981306C05A
:1001F0000288F389E02D80818F7D80830895EF92BE
:10020000FF920F931F93CF93DF93EC0181E0888FD0
:100210009B8D8C8D98131AC0E889F989808185FFA0
:1002200015C09FB7F894EE89FF896083E889F98942
:1002300080818370806480839FBF81E090E0DF9144
:10024000CF911F910F91FF90EF900895F62E0B8D97
:1002500010E00F5F1F4F0F731127E02E8C8D8E1152
:100260000CC00FB607FCFACFE889F989808185FFB9
:10027000F5CFCE010E94DD00F1CFEB8DEC0FFD2F0D
:10028000F11DE35AFF4FF0829FB7F8940B8FEA8974
:10029000FB8980818062CFCFCF93DF93EC01888D83
:1002A0008823B9F0AA89BB89E889F9898C9185FDF1
:1002B00003C0808186FD0DC00FB607FCF7CF8C917F
:1002C00085FFF2CF808185FFEDCFCE010E94DD005A
:1002D000E9CFDF91CF9108953FB7F89480916B01FA
:1002E00090916C01A0916D01B0916E0126B5A89B13
:1002F00005C02F3F19F00196A11DB11D3FBFBA2FB8
:10030000A92F982F8827BC01CD01620F711D811D77
:10031000911D42E0660F771F881F991F4A95D1F7FC
:1003200008958F929F92AF92BF92CF92DF92EF92F9
:10033000FF924B015C010E946C016B017C010E94E9
:100340006C016C197D098E099F09683E7340810517
:100350009105A8F321E0821A9108A108B10888EE5E
:10036000C80E83E0D81EE11CF11C81149104A10485
:10037000B10429F7FF90EF90DF90CF90BF90AF903E
:100380009F908F900895FC0101900020E9F731972C
:10039000AF01481B590BBC0186ED91E00C945F0046
:1003A000CF93DF930E94C301EC0184E391E00E94AC
:1003B000C3018C0F9D1FDF91CF91089587E391E0DA
:1003C0000E94D00168E873E180E090E00E94910112
:1003D0000C94003C08951F920F920FB60F921124B7
:1003E0002F933F934F935F936F937F938F939F933D
:1003F000AF93BF93EF93FF9386ED91E00E94DD00F2
:10040000FF91EF91BF91AF919F918F917F916F91EC
:100410005F914F913F912F910F900FBE0F901F90C2
:1004200018951F920F920FB60F9211242F938F934E
:100430009F93EF93FF93E091E601F091E7018081B4
:10044000E091EC01F091ED0182FD1BC09081809163
:10045000EF018F5F8F732091F001821741F0E091DF
:10046000EF01F0E0EA52FE4F958F8093EF01FF918C
:10047000EF919F918F912F910F900FBE0F901F9032
:1004800018958081F4CF1F920F920FB60F9211240E
:100490002F933F938F939F93AF93BF938091670167
:1004A00090916801A0916901B0916A013091660153
:1004B00023E0230F2D3758F50196A11DB11D209380
:1004C00066018093670190936801A0936901B093DE
:1004D0006A0180916B0190916C01A0916D01B091C6
:1004E0006E010196A11DB11D80936B0190936C016B
:1004F000A0936D01B0936E01BF91AF919F918F91C9
:100500003F912F910F900FBE0F901F90189526E8E6
:10051000230F0296A11DB11DD2CF789484B58260BD
:1005200084BD84B5816084BD85B5826085BD85B597
:10053000816085BD80916E00816080936E00109215
:100540008100809181008260809381008091810090
:100550008160809381008091800081608093800021
:100560008091B10084608093B1008091B00081607F
:100570008093B00080917A00846080937A008091AB
:100580007A00826080937A0080917A008160809303
:100590007A0080917A00806880937A001092C1007E
:1005A000E091E601F091E70182E08083E091E201D1
:1005B000F091E3011082E091E401F091E5018FEC0C
:1005C00080831092EE01E091EA01F091EB0186E068
:1005D0008083E091E801F091E9018081806180836E
:1005E000E091E801F091E901808188608083E091E9
:1005F000E801F091E901808180688083E091E80161
:10060000F091E90180818F7D808386E491E00E94F2
:10061000C30100E010E08091D5018D3059F1809147
:10062000D3019091D4018436910524F586ED91E0B3
:100630000E94BD00892B79F386ED91E00E94BD00F8
:100640001816190644F786ED91E00E949B008093EE
:10065000D5018D3089F32091D3013091D401F90176
:10066000E159FE4F80832F5F3F4F3093D401209399
:10067000D301E2CF84E391E00E94C30181E591E0E0
:100680000E94D00184E391E00E94C3018091D301D4
:100690009091D4014197B9F58FE6A82E81E0B82E4C
:1006A00093E2C92E91E0D92E22E1E22E21E0F22E32
:1006B000D0E0C0E0F50121915F01F60181916F0169
:1006C000F70141917F01BE01680F711D87FD7A9589
:1006D000CB01022E000C330B8227932748171906F3
:1006E00011F00E94DE012796C737D10519F786E57C
:1006F00091E00E94D00160E177E280E090E00E940A
:1007000091010C94003C0E94DE010115110509F4D1
:1007100082CF0E94C900882309F47DCF0E94000087
:100720007ACFE6EDF1E01382128288EE93E0A0E04A
:10073000B0E084839583A683B78384E091E09183BE
:10074000808385EC90E09587848784EC90E09787A0
:10075000868780EC90E0918B808B81EC90E0938B8E
:10076000828B82EC90E0958B848B86EC90E0978B6B
:10077000868B118E128E138E148E0895EE0FFF1F2E
:0C0780000590F491E02D0994F894FFCF4F
:10078C0000000000FF005F008C004C01BD009B00CE
:10079C00AF00733C48FD054BCF3C4A36C1EEF08DA3
:1007AC00DF5AB919422D743E5C661E431C6B356FC3
:1007BC007745015B0D0A00416363657373206465C3
:1007CC006E696564210050617373776F72643A20AF
:1007DC00002E2E2E2E0041636365737320677261A9
:0607EC006E74656421003B
:00000001FF
